{
  "contractName": "SolnSquareVerifier",
  "abi": [
    {
      "inputs": [
        {
          "internalType": "address",
          "name": "verifier_addr",
          "type": "address"
        }
      ],
      "payable": false,
      "stateMutability": "nonpayable",
      "type": "constructor"
    },
    {
      "anonymous": false,
      "inputs": [
        {
          "indexed": true,
          "internalType": "address",
          "name": "owner",
          "type": "address"
        },
        {
          "indexed": true,
          "internalType": "address",
          "name": "approved",
          "type": "address"
        },
        {
          "indexed": true,
          "internalType": "uint256",
          "name": "tokenId",
          "type": "uint256"
        }
      ],
      "name": "Approval",
      "type": "event"
    },
    {
      "anonymous": false,
      "inputs": [
        {
          "indexed": true,
          "internalType": "address",
          "name": "owner",
          "type": "address"
        },
        {
          "indexed": true,
          "internalType": "address",
          "name": "operator",
          "type": "address"
        },
        {
          "indexed": false,
          "internalType": "bool",
          "name": "approved",
          "type": "bool"
        }
      ],
      "name": "ApprovalForAll",
      "type": "event"
    },
    {
      "anonymous": false,
      "inputs": [
        {
          "indexed": false,
          "internalType": "address",
          "name": "account",
          "type": "address"
        }
      ],
      "name": "Paused",
      "type": "event"
    },
    {
      "anonymous": false,
      "inputs": [
        {
          "indexed": true,
          "internalType": "address",
          "name": "owner",
          "type": "address"
        },
        {
          "indexed": true,
          "internalType": "uint256",
          "name": "tokenID",
          "type": "uint256"
        }
      ],
      "name": "SolutionSubmitted",
      "type": "event"
    },
    {
      "anonymous": false,
      "inputs": [
        {
          "indexed": true,
          "internalType": "address",
          "name": "from",
          "type": "address"
        },
        {
          "indexed": true,
          "internalType": "address",
          "name": "to",
          "type": "address"
        },
        {
          "indexed": true,
          "internalType": "uint256",
          "name": "tokenId",
          "type": "uint256"
        }
      ],
      "name": "Transfer",
      "type": "event"
    },
    {
      "anonymous": false,
      "inputs": [
        {
          "indexed": true,
          "internalType": "address",
          "name": "previousOwner",
          "type": "address"
        },
        {
          "indexed": true,
          "internalType": "address",
          "name": "newOwner",
          "type": "address"
        }
      ],
      "name": "TransferOwnership",
      "type": "event"
    },
    {
      "anonymous": false,
      "inputs": [
        {
          "indexed": false,
          "internalType": "address",
          "name": "account",
          "type": "address"
        }
      ],
      "name": "UnPaused",
      "type": "event"
    },
    {
      "constant": false,
      "inputs": [
        {
          "internalType": "bytes32",
          "name": "_myid",
          "type": "bytes32"
        },
        {
          "internalType": "string",
          "name": "_result",
          "type": "string"
        }
      ],
      "name": "__callback",
      "outputs": [],
      "payable": false,
      "stateMutability": "nonpayable",
      "type": "function"
    },
    {
      "constant": false,
      "inputs": [
        {
          "internalType": "bytes32",
          "name": "_myid",
          "type": "bytes32"
        },
        {
          "internalType": "string",
          "name": "_result",
          "type": "string"
        },
        {
          "internalType": "bytes",
          "name": "_proof",
          "type": "bytes"
        }
      ],
      "name": "__callback",
      "outputs": [],
      "payable": false,
      "stateMutability": "nonpayable",
      "type": "function"
    },
    {
      "constant": false,
      "inputs": [
        {
          "internalType": "address",
          "name": "to",
          "type": "address"
        },
        {
          "internalType": "uint256",
          "name": "tokenId",
          "type": "uint256"
        }
      ],
      "name": "approve",
      "outputs": [],
      "payable": false,
      "stateMutability": "nonpayable",
      "type": "function"
    },
    {
      "constant": true,
      "inputs": [
        {
          "internalType": "address",
          "name": "owner",
          "type": "address"
        }
      ],
      "name": "balanceOf",
      "outputs": [
        {
          "internalType": "uint256",
          "name": "",
          "type": "uint256"
        }
      ],
      "payable": false,
      "stateMutability": "view",
      "type": "function"
    },
    {
      "constant": true,
      "inputs": [],
      "name": "baseTokenURI",
      "outputs": [
        {
          "internalType": "string",
          "name": "",
          "type": "string"
        }
      ],
      "payable": false,
      "stateMutability": "view",
      "type": "function"
    },
    {
      "constant": true,
      "inputs": [
        {
          "internalType": "uint256",
          "name": "tokenId",
          "type": "uint256"
        }
      ],
      "name": "getApproved",
      "outputs": [
        {
          "internalType": "address",
          "name": "",
          "type": "address"
        }
      ],
      "payable": false,
      "stateMutability": "view",
      "type": "function"
    },
    {
      "constant": true,
      "inputs": [
        {
          "internalType": "address",
          "name": "owner",
          "type": "address"
        },
        {
          "internalType": "address",
          "name": "operator",
          "type": "address"
        }
      ],
      "name": "isApprovedForAll",
      "outputs": [
        {
          "internalType": "bool",
          "name": "",
          "type": "bool"
        }
      ],
      "payable": false,
      "stateMutability": "view",
      "type": "function"
    },
    {
      "constant": true,
      "inputs": [],
      "name": "name",
      "outputs": [
        {
          "internalType": "string",
          "name": "",
          "type": "string"
        }
      ],
      "payable": false,
      "stateMutability": "view",
      "type": "function"
    },
    {
      "constant": true,
      "inputs": [],
      "name": "owner",
      "outputs": [
        {
          "internalType": "address",
          "name": "",
          "type": "address"
        }
      ],
      "payable": false,
      "stateMutability": "view",
      "type": "function"
    },
    {
      "constant": true,
      "inputs": [
        {
          "internalType": "uint256",
          "name": "tokenId",
          "type": "uint256"
        }
      ],
      "name": "ownerOf",
      "outputs": [
        {
          "internalType": "address",
          "name": "",
          "type": "address"
        }
      ],
      "payable": false,
      "stateMutability": "view",
      "type": "function"
    },
    {
      "constant": false,
      "inputs": [],
      "name": "pause",
      "outputs": [],
      "payable": false,
      "stateMutability": "nonpayable",
      "type": "function"
    },
    {
      "constant": false,
      "inputs": [
        {
          "internalType": "address",
          "name": "from",
          "type": "address"
        },
        {
          "internalType": "address",
          "name": "to",
          "type": "address"
        },
        {
          "internalType": "uint256",
          "name": "tokenId",
          "type": "uint256"
        }
      ],
      "name": "safeTransferFrom",
      "outputs": [],
      "payable": false,
      "stateMutability": "nonpayable",
      "type": "function"
    },
    {
      "constant": false,
      "inputs": [
        {
          "internalType": "address",
          "name": "from",
          "type": "address"
        },
        {
          "internalType": "address",
          "name": "to",
          "type": "address"
        },
        {
          "internalType": "uint256",
          "name": "tokenId",
          "type": "uint256"
        },
        {
          "internalType": "bytes",
          "name": "_data",
          "type": "bytes"
        }
      ],
      "name": "safeTransferFrom",
      "outputs": [],
      "payable": false,
      "stateMutability": "nonpayable",
      "type": "function"
    },
    {
      "constant": false,
      "inputs": [
        {
          "internalType": "address",
          "name": "to",
          "type": "address"
        },
        {
          "internalType": "bool",
          "name": "approved",
          "type": "bool"
        }
      ],
      "name": "setApprovalForAll",
      "outputs": [],
      "payable": false,
      "stateMutability": "nonpayable",
      "type": "function"
    },
    {
      "constant": true,
      "inputs": [
        {
          "internalType": "bytes4",
          "name": "interfaceId",
          "type": "bytes4"
        }
      ],
      "name": "supportsInterface",
      "outputs": [
        {
          "internalType": "bool",
          "name": "",
          "type": "bool"
        }
      ],
      "payable": false,
      "stateMutability": "view",
      "type": "function"
    },
    {
      "constant": true,
      "inputs": [],
      "name": "symbol",
      "outputs": [
        {
          "internalType": "string",
          "name": "",
          "type": "string"
        }
      ],
      "payable": false,
      "stateMutability": "view",
      "type": "function"
    },
    {
      "constant": true,
      "inputs": [
        {
          "internalType": "uint256",
          "name": "index",
          "type": "uint256"
        }
      ],
      "name": "tokenByIndex",
      "outputs": [
        {
          "internalType": "uint256",
          "name": "",
          "type": "uint256"
        }
      ],
      "payable": false,
      "stateMutability": "view",
      "type": "function"
    },
    {
      "constant": true,
      "inputs": [
        {
          "internalType": "address",
          "name": "owner",
          "type": "address"
        },
        {
          "internalType": "uint256",
          "name": "index",
          "type": "uint256"
        }
      ],
      "name": "tokenOfOwnerByIndex",
      "outputs": [
        {
          "internalType": "uint256",
          "name": "",
          "type": "uint256"
        }
      ],
      "payable": false,
      "stateMutability": "view",
      "type": "function"
    },
    {
      "constant": true,
      "inputs": [
        {
          "internalType": "uint256",
          "name": "tokenId",
          "type": "uint256"
        }
      ],
      "name": "tokenURI",
      "outputs": [
        {
          "internalType": "string",
          "name": "",
          "type": "string"
        }
      ],
      "payable": false,
      "stateMutability": "view",
      "type": "function"
    },
    {
      "constant": true,
      "inputs": [],
      "name": "totalSupply",
      "outputs": [
        {
          "internalType": "uint256",
          "name": "",
          "type": "uint256"
        }
      ],
      "payable": false,
      "stateMutability": "view",
      "type": "function"
    },
    {
      "constant": false,
      "inputs": [
        {
          "internalType": "address",
          "name": "from",
          "type": "address"
        },
        {
          "internalType": "address",
          "name": "to",
          "type": "address"
        },
        {
          "internalType": "uint256",
          "name": "tokenId",
          "type": "uint256"
        }
      ],
      "name": "transferFrom",
      "outputs": [],
      "payable": false,
      "stateMutability": "nonpayable",
      "type": "function"
    },
    {
      "constant": false,
      "inputs": [
        {
          "internalType": "address",
          "name": "newOwner",
          "type": "address"
        }
      ],
      "name": "transferOwnership",
      "outputs": [],
      "payable": false,
      "stateMutability": "nonpayable",
      "type": "function"
    },
    {
      "constant": false,
      "inputs": [],
      "name": "unPause",
      "outputs": [],
      "payable": false,
      "stateMutability": "nonpayable",
      "type": "function"
    },
    {
      "constant": false,
      "inputs": [
        {
          "internalType": "uint256[2]",
          "name": "a",
          "type": "uint256[2]"
        },
        {
          "internalType": "uint256[2][2]",
          "name": "b",
          "type": "uint256[2][2]"
        },
        {
          "internalType": "uint256[2]",
          "name": "c",
          "type": "uint256[2]"
        },
        {
          "internalType": "uint256[2]",
          "name": "input",
          "type": "uint256[2]"
        },
        {
          "internalType": "address",
          "name": "account",
          "type": "address"
        },
        {
          "internalType": "uint256",
          "name": "tokenID",
          "type": "uint256"
        }
      ],
      "name": "submitSolution",
      "outputs": [],
      "payable": false,
      "stateMutability": "nonpayable",
      "type": "function"
    },
    {
      "constant": false,
      "inputs": [
        {
          "internalType": "address",
          "name": "to",
          "type": "address"
        },
        {
          "internalType": "uint256",
          "name": "tokenID",
          "type": "uint256"
        }
      ],
      "name": "mint",
      "outputs": [
        {
          "internalType": "bool",
          "name": "",
          "type": "bool"
        }
      ],
      "payable": false,
      "stateMutability": "nonpayable",
      "type": "function"
    }
  ],
  "bytecode": "0x60806040523480156200001157600080fd5b5060405162003e8a38038062003e8a833981810160405260208110156200003757600080fd5b81019080805190602001909291905050506040518060400160405280600d81526020017f42617468696e6920546f6b656e000000000000000000000000000000000000008152506040518060400160405280600481526020017f42415448000000000000000000000000000000000000000000000000000000008152506040518060600160405280603f815260200162003e4b603f9139336000806101000a81548173ffffffffffffffffffffffffffffffffffffffff021916908373ffffffffffffffffffffffffffffffffffffffff1602179055506000809054906101000a900473ffffffffffffffffffffffffffffffffffffffff1673ffffffffffffffffffffffffffffffffffffffff16600073ffffffffffffffffffffffffffffffffffffffff167f5c486528ec3e3f0ea91181cff8116f02bfa350e03b8b6f12e00765adbb5af85c60405160405180910390a3620001a26301ffc9a760e01b6200028060201b60201c565b620001ba6380ac58cd60e01b6200028060201b60201c565b620001d263780e9d6360e01b6200028060201b60201c565b82600f9080519060200190620001ea92919062000320565b5081601090805190602001906200020392919062000320565b5080601190805190602001906200021c92919062000320565b5062000235635b5e139f60e01b6200028060201b60201c565b50505080601360006101000a81548173ffffffffffffffffffffffffffffffffffffffff021916908373ffffffffffffffffffffffffffffffffffffffff16021790555050620003cf565b63ffffffff60e01b817bffffffffffffffffffffffffffffffffffffffffffffffffffffffff19161415620002b457600080fd5b6001806000837bffffffffffffffffffffffffffffffffffffffffffffffffffffffff19167bffffffffffffffffffffffffffffffffffffffffffffffffffffffff1916815260200190815260200160002060006101000a81548160ff02191690831515021790555050565b828054600181600116156101000203166002900490600052602060002090601f016020900481019282601f106200036357805160ff191683800117855562000394565b8280016001018555821562000394579182015b828111156200039357825182559160200191906001019062000376565b5b509050620003a39190620003a7565b5090565b620003cc91905b80821115620003c8576000816000905550600101620003ae565b5090565b90565b613a6c80620003df6000396000f3fe608060405234801561001057600080fd5b50600436106101735760003560e01c80636352211e116100de578063a22cb46511610097578063d547cfb711610071578063d547cfb714610c65578063e985e9c514610ce8578063f2fde38b14610d64578063f7b188a514610da857610173565b8063a22cb46514610a69578063b88d4fde14610ab9578063c87b56dd14610bbe57610173565b80636352211e146107415780636bc53017146107af57806370a082311461093a5780638456cb59146109925780638da5cb5b1461099c57806395d89b41146109e657610173565b806327dc297e1161013057806327dc297e146103a85780632f745c591461046d57806338bbfa50146104cf57806340c10f191461062b57806342842e0e146106915780634f6ccce7146106ff57610173565b806301ffc9a71461017857806306fdde03146101dd578063081812fc14610260578063095ea7b3146102ce57806318160ddd1461031c57806323b872dd1461033a575b600080fd5b6101c36004803603602081101561018e57600080fd5b8101908080357bffffffffffffffffffffffffffffffffffffffffffffffffffffffff19169060200190929190505050610db2565b604051808215151515815260200191505060405180910390f35b6101e5610e1a565b6040518080602001828103825283818151815260200191508051906020019080838360005b8381101561022557808201518184015260208101905061020a565b50505050905090810190601f1680156102525780820380516001836020036101000a031916815260200191505b509250505060405180910390f35b61028c6004803603602081101561027657600080fd5b8101908080359060200190929190505050610ebc565b604051808273ffffffffffffffffffffffffffffffffffffffff1673ffffffffffffffffffffffffffffffffffffffff16815260200191505060405180910390f35b61031a600480360360408110156102e457600080fd5b81019080803573ffffffffffffffffffffffffffffffffffffffff16906020019092919080359060200190929190505050610f74565b005b61032461114d565b6040518082815260200191505060405180910390f35b6103a66004803603606081101561035057600080fd5b81019080803573ffffffffffffffffffffffffffffffffffffffff169060200190929190803573ffffffffffffffffffffffffffffffffffffffff1690602001909291908035906020019092919050505061115a565b005b61046b600480360360408110156103be57600080fd5b8101908080359060200190929190803590602001906401000000008111156103e557600080fd5b8201836020820111156103f757600080fd5b8035906020019184600183028401116401000000008311171561041957600080fd5b91908080601f016020809104026020016040519081016040528093929190818152602001838380828437600081840152601f19601f82011690508083019250505050505050919291929050505061117d565b005b6104b96004803603604081101561048357600080fd5b81019080803573ffffffffffffffffffffffffffffffffffffffff169060200190929190803590602001909291905050506111c0565b6040518082815260200191505060405180910390f35b610629600480360360608110156104e557600080fd5b81019080803590602001909291908035906020019064010000000081111561050c57600080fd5b82018360208201111561051e57600080fd5b8035906020019184600183028401116401000000008311171561054057600080fd5b91908080601f016020809104026020016040519081016040528093929190818152602001838380828437600081840152601f19601f820116905080830192505050505050509192919290803590602001906401000000008111156105a357600080fd5b8201836020820111156105b557600080fd5b803590602001918460018302840111640100000000831117156105d757600080fd5b91908080601f016020809104026020016040519081016040528093929190818152602001838380828437600081840152601f19601f820116905080830192505050505050509192919290505050611233565b005b6106776004803603604081101561064157600080fd5b81019080803573ffffffffffffffffffffffffffffffffffffffff16906020019092919080359060200190929190505050611238565b604051808215151515815260200191505060405180910390f35b6106fd600480360360608110156106a757600080fd5b81019080803573ffffffffffffffffffffffffffffffffffffffff169060200190929190803573ffffffffffffffffffffffffffffffffffffffff1690602001909291908035906020019092919050505061143c565b005b61072b6004803603602081101561071557600080fd5b810190808035906020019092919050505061145c565b6040518082815260200191505060405180910390f35b61076d6004803603602081101561075757600080fd5b8101908080359060200190929190505050611490565b604051808273ffffffffffffffffffffffffffffffffffffffff1673ffffffffffffffffffffffffffffffffffffffff16815260200191505060405180910390f35b61093860048036036101808110156107c657600080fd5b8101908080604001906002806020026040519081016040528092919082600260200280828437600081840152601f19601f82011690508083019250505050505091929192908060800190600280602002604051908101604052809291906000905b8282101561087b578382604002016002806020026040519081016040528092919082600260200280828437600081840152601f19601f82011690508083019250505050505081526020019060010190610827565b50505050919291929080604001906002806020026040519081016040528092919082600260200280828437600081840152601f19601f820116905080830192505050505050919291929080604001906002806020026040519081016040528092919082600260200280828437600081840152601f19601f8201169050808301925050505050509192919290803573ffffffffffffffffffffffffffffffffffffffff16906020019092919080359060200190929190505050611575565b005b61097c6004803603602081101561095057600080fd5b81019080803573ffffffffffffffffffffffffffffffffffffffff1690602001909291905050506119e0565b6040518082815260200191505060405180910390f35b61099a611ad5565b005b6109a4611c9a565b604051808273ffffffffffffffffffffffffffffffffffffffff1673ffffffffffffffffffffffffffffffffffffffff16815260200191505060405180910390f35b6109ee611cc3565b6040518080602001828103825283818151815260200191508051906020019080838360005b83811015610a2e578082015181840152602081019050610a13565b50505050905090810190601f168015610a5b5780820380516001836020036101000a031916815260200191505b509250505060405180910390f35b610ab760048036036040811015610a7f57600080fd5b81019080803573ffffffffffffffffffffffffffffffffffffffff169060200190929190803515159060200190929190505050611d65565b005b610bbc60048036036080811015610acf57600080fd5b81019080803573ffffffffffffffffffffffffffffffffffffffff169060200190929190803573ffffffffffffffffffffffffffffffffffffffff1690602001909291908035906020019092919080359060200190640100000000811115610b3657600080fd5b820183602082011115610b4857600080fd5b80359060200191846001830284011164010000000083111715610b6a57600080fd5b91908080601f016020809104026020016040519081016040528093929190818152602001838380828437600081840152601f19601f820116905080830192505050505050509192919290505050611e9f565b005b610bea60048036036020811015610bd457600080fd5b8101908080359060200190929190505050611ec5565b6040518080602001828103825283818151815260200191508051906020019080838360005b83811015610c2a578082015181840152602081019050610c0f565b50505050905090810190601f168015610c575780820380516001836020036101000a031916815260200191505b509250505060405180910390f35b610c6d611f8c565b6040518080602001828103825283818151815260200191508051906020019080838360005b83811015610cad578082015181840152602081019050610c92565b50505050905090810190601f168015610cda5780820380516001836020036101000a031916815260200191505b509250505060405180910390f35b610d4a60048036036040811015610cfe57600080fd5b81019080803573ffffffffffffffffffffffffffffffffffffffff169060200190929190803573ffffffffffffffffffffffffffffffffffffffff16906020019092919050505061202e565b604051808215151515815260200191505060405180910390f35b610da660048036036020811015610d7a57600080fd5b81019080803573ffffffffffffffffffffffffffffffffffffffff1690602001909291905050506120c2565b005b610db06122e7565b005b600060016000837bffffffffffffffffffffffffffffffffffffffffffffffffffffffff19167bffffffffffffffffffffffffffffffffffffffffffffffffffffffff1916815260200190815260200160002060009054906101000a900460ff169050919050565b6060600f8054600181600116156101000203166002900480601f016020809104026020016040519081016040528092919081815260200182805460018160011615610100020316600290048015610eb25780601f10610e8757610100808354040283529160200191610eb2565b820191906000526020600020905b815481529060010190602001808311610e9557829003601f168201915b5050505050905090565b6000610ec7826124aa565b610f39576040517f08c379a00000000000000000000000000000000000000000000000000000000081526004018080602001828103825260148152602001807f546f6b656e20646f6573206e6f7420657869737400000000000000000000000081525060200191505060405180910390fd5b6003600083815260200190815260200160002060009054906101000a900473ffffffffffffffffffffffffffffffffffffffff169050919050565b6000610f7f82611490565b90508273ffffffffffffffffffffffffffffffffffffffff168173ffffffffffffffffffffffffffffffffffffffff161415611006576040517f08c379a00000000000000000000000000000000000000000000000000000000081526004018080602001828103825260298152602001806139136029913960400191505060405180910390fd5b8073ffffffffffffffffffffffffffffffffffffffff163373ffffffffffffffffffffffffffffffffffffffff1614806110465750611045813361202e565b5b61109b576040517f08c379a000000000000000000000000000000000000000000000000000000000815260040180806020018281038252603c8152602001806139fc603c913960400191505060405180910390fd5b826003600084815260200190815260200160002060006101000a81548173ffffffffffffffffffffffffffffffffffffffff021916908373ffffffffffffffffffffffffffffffffffffffff160217905550818373ffffffffffffffffffffffffffffffffffffffff168273ffffffffffffffffffffffffffffffffffffffff167f8c5be1e5ebec7d5bd14f71427d1e84f3dd0314c0f7b2291e5b200ac8c7c3b92560405160405180910390a4505050565b6000600880549050905090565b611164338261251c565b61116d57600080fd5b6111788383836125b1565b505050565b6111bc828260006040519080825280601f01601f1916602001820160405280156111b65781602001600182028038833980820191505090505b50611233565b5050565b60006111cb836119e0565b82106111d657600080fd5b600660008473ffffffffffffffffffffffffffffffffffffffff1673ffffffffffffffffffffffffffffffffffffffff168152602001908152602001600020828154811061122057fe5b9060005260206000200154905092915050565b505050565b600080601560008481526020019081526020016000205490506000801b8114156112ad576040517f08c379a00000000000000000000000000000000000000000000000000000000081526004018080602001828103825260288152602001806139866028913960400191505060405180910390fd5b6014600082815260200190815260200160002060040160009054906101000a900460ff1615611327576040517f08c379a00000000000000000000000000000000000000000000000000000000081526004018080602001828103825260218152602001806139ae6021913960400191505060405180910390fd5b6000601460006015600087815260200190815260200160002054815260200190815260200160002060010160009054906101000a900473ffffffffffffffffffffffffffffffffffffffff1690508473ffffffffffffffffffffffffffffffffffffffff168173ffffffffffffffffffffffffffffffffffffffff16146113f9576040517f08c379a00000000000000000000000000000000000000000000000000000000081526004018080602001828103825260228152602001806138f16022913960400191505060405180910390fd5b60016014600084815260200190815260200160002060040160006101000a81548160ff02191690831515021790555061143285856125d5565b9250505092915050565b61145783838360405180602001604052806000815250611e9f565b505050565b600061146661114d565b821061147157600080fd5b6008828154811061147e57fe5b90600052602060002001549050919050565b6000806002600084815260200190815260200160002060009054906101000a900473ffffffffffffffffffffffffffffffffffffffff169050600073ffffffffffffffffffffffffffffffffffffffff168173ffffffffffffffffffffffffffffffffffffffff16141561156c576040517f08c379a000000000000000000000000000000000000000000000000000000000815260040180806020018281038252601b8152602001807f6f776e6572206d7573742062652076616c69642061646472657373000000000081525060200191505060405180910390fd5b80915050919050565b601360009054906101000a900473ffffffffffffffffffffffffffffffffffffffff1673ffffffffffffffffffffffffffffffffffffffff1663621e9ec0878787876040518563ffffffff1660e01b81526004018085600260200280838360005b838110156115f15780820151818401526020810190506115d6565b505050509050018460026000925b818410156116455782846020020151600260200280838360005b83811015611634578082015181840152602081019050611619565b5050505090500192600101926115ff565b9250505083600260200280838360005b83811015611670578082015181840152602081019050611655565b5050505090500182600260200280838360005b8381101561169e578082015181840152602081019050611683565b5050505090500194505050505060206040518083038186803b1580156116c357600080fd5b505afa1580156116d7573d6000803e3d6000fd5b505050506040513d60208110156116ed57600080fd5b8101908080519060200190929190505050611770576040517f08c379a000000000000000000000000000000000000000000000000000000000815260040180806020018281038252601d8152602001807f756e61626c6520746f207665726966792074686520736f6c7574696f6e00000081525060200191505060405180910390fd5b6000868686866040516020018085600260200280838360005b838110156117a4578082015181840152602081019050611789565b505050509050018460026000925b818410156117f85782846020020151600260200280838360005b838110156117e75780820151818401526020810190506117cc565b5050505090500192600101926117b2565b9250505083600260200280838360005b83811015611823578082015181840152602081019050611808565b5050505090500182600260200280838360005b83811015611851578082015181840152602081019050611836565b5050505090500194505050505060405160208183030381529060405280519060200120905060006014600083815260200190815260200160002060000154146118e5576040517f08c379a000000000000000000000000000000000000000000000000000000000815260040180806020018281038252604a81526020018061393c604a913960600191505060405180910390fd5b806015600084815260200190815260200160002081905550826014600083815260200190815260200160002060010160006101000a81548173ffffffffffffffffffffffffffffffffffffffff021916908373ffffffffffffffffffffffffffffffffffffffff16021790555081601460008381526020019081526020016000206000018190555083601460008381526020019081526020016000206002019060026119929291906137df565b50818373ffffffffffffffffffffffffffffffffffffffff167fa1cc0f96f4271e0214bdad9a3900ecacb3e1deff8f94e0e400a026ab70cd224c60405160405180910390a350505050505050565b600081600073ffffffffffffffffffffffffffffffffffffffff168173ffffffffffffffffffffffffffffffffffffffff161415611a86576040517f08c379a000000000000000000000000000000000000000000000000000000000815260040180806020018281038252600f8152602001807f496e76616c69642061646472657373000000000000000000000000000000000081525060200191505060405180910390fd5b611acd600460008573ffffffffffffffffffffffffffffffffffffffff1673ffffffffffffffffffffffffffffffffffffffff1681526020019081526020016000206126b6565b915050919050565b6000809054906101000a900473ffffffffffffffffffffffffffffffffffffffff1673ffffffffffffffffffffffffffffffffffffffff163373ffffffffffffffffffffffffffffffffffffffff1614611b97576040517f08c379a000000000000000000000000000000000000000000000000000000000815260040180806020018281038252601c8152602001807f43616c6c6572206973206e6f7420636f6e7472616374206f776e65720000000081525060200191505060405180910390fd5b600060149054906101000a900460ff1615611c1a576040517f08c379a00000000000000000000000000000000000000000000000000000000081526004018080602001828103825260188152602001807f436f6e747261637420686173206265656e20706175736564000000000000000081525060200191505060405180910390fd5b6001600060146101000a81548160ff0219169083151502179055507f62e78cea01bee320cd4e420270b5ea74000d11b0c9f74754ebdbfc544b05a25833604051808273ffffffffffffffffffffffffffffffffffffffff1673ffffffffffffffffffffffffffffffffffffffff16815260200191505060405180910390a1565b60008060009054906101000a900473ffffffffffffffffffffffffffffffffffffffff16905090565b606060108054600181600116156101000203166002900480601f016020809104026020016040519081016040528092919081815260200182805460018160011615610100020316600290048015611d5b5780601f10611d3057610100808354040283529160200191611d5b565b820191906000526020600020905b815481529060010190602001808311611d3e57829003601f168201915b5050505050905090565b3373ffffffffffffffffffffffffffffffffffffffff168273ffffffffffffffffffffffffffffffffffffffff161415611d9e57600080fd5b80600560003373ffffffffffffffffffffffffffffffffffffffff1673ffffffffffffffffffffffffffffffffffffffff16815260200190815260200160002060008473ffffffffffffffffffffffffffffffffffffffff1673ffffffffffffffffffffffffffffffffffffffff16815260200190815260200160002060006101000a81548160ff0219169083151502179055508173ffffffffffffffffffffffffffffffffffffffff163373ffffffffffffffffffffffffffffffffffffffff167f17307eab39ab6107e8899845ad3d59bd9653f200f220920489ca2b5937696c3183604051808215151515815260200191505060405180910390a35050565b611eaa84848461115a565b611eb6848484846126c4565b611ebf57600080fd5b50505050565b6060611ed0826124aa565b611ed957600080fd5b601260008381526020019081526020016000208054600181600116156101000203166002900480601f016020809104026020016040519081016040528092919081815260200182805460018160011615610100020316600290048015611f805780601f10611f5557610100808354040283529160200191611f80565b820191906000526020600020905b815481529060010190602001808311611f6357829003601f168201915b50505050509050919050565b606060118054600181600116156101000203166002900480601f0160208091040260200160405190810160405280929190818152602001828054600181600116156101000203166002900480156120245780601f10611ff957610100808354040283529160200191612024565b820191906000526020600020905b81548152906001019060200180831161200757829003601f168201915b5050505050905090565b6000600560008473ffffffffffffffffffffffffffffffffffffffff1673ffffffffffffffffffffffffffffffffffffffff16815260200190815260200160002060008373ffffffffffffffffffffffffffffffffffffffff1673ffffffffffffffffffffffffffffffffffffffff16815260200190815260200160002060009054906101000a900460ff16905092915050565b6000809054906101000a900473ffffffffffffffffffffffffffffffffffffffff1673ffffffffffffffffffffffffffffffffffffffff163373ffffffffffffffffffffffffffffffffffffffff1614612184576040517f08c379a000000000000000000000000000000000000000000000000000000000815260040180806020018281038252601c8152602001807f43616c6c6572206973206e6f7420636f6e7472616374206f776e65720000000081525060200191505060405180910390fd5b80600073ffffffffffffffffffffffffffffffffffffffff168173ffffffffffffffffffffffffffffffffffffffff161415612228576040517f08c379a000000000000000000000000000000000000000000000000000000000815260040180806020018281038252600f8152602001807f496e76616c69642061646472657373000000000000000000000000000000000081525060200191505060405180910390fd5b816000806101000a81548173ffffffffffffffffffffffffffffffffffffffff021916908373ffffffffffffffffffffffffffffffffffffffff1602179055508173ffffffffffffffffffffffffffffffffffffffff166000809054906101000a900473ffffffffffffffffffffffffffffffffffffffff1673ffffffffffffffffffffffffffffffffffffffff167f5c486528ec3e3f0ea91181cff8116f02bfa350e03b8b6f12e00765adbb5af85c60405160405180910390a35050565b6000809054906101000a900473ffffffffffffffffffffffffffffffffffffffff1673ffffffffffffffffffffffffffffffffffffffff163373ffffffffffffffffffffffffffffffffffffffff16146123a9576040517f08c379a000000000000000000000000000000000000000000000000000000000815260040180806020018281038252601c8152602001807f43616c6c6572206973206e6f7420636f6e7472616374206f776e65720000000081525060200191505060405180910390fd5b600060149054906101000a900460ff1661242b576040517f08c379a000000000000000000000000000000000000000000000000000000000815260040180806020018281038252601c8152602001807f436f6e747261637420686173206e6f74206265656e207061757365640000000081525060200191505060405180910390fd5b60008060146101000a81548160ff0219169083151502179055507fff2b959f2bcdb44c7ecb4b16dae055431019d7350607125cfc2b74a06632c90e33604051808273ffffffffffffffffffffffffffffffffffffffff1673ffffffffffffffffffffffffffffffffffffffff16815260200191505060405180910390a1565b6000806002600084815260200190815260200160002060009054906101000a900473ffffffffffffffffffffffffffffffffffffffff169050600073ffffffffffffffffffffffffffffffffffffffff168173ffffffffffffffffffffffffffffffffffffffff161415915050919050565b60008061252883611490565b90508073ffffffffffffffffffffffffffffffffffffffff168473ffffffffffffffffffffffffffffffffffffffff16148061259757508373ffffffffffffffffffffffffffffffffffffffff1661257f84610ebc565b73ffffffffffffffffffffffffffffffffffffffff16145b806125a857506125a7818561202e565b5b91505092915050565b6125bc8383836128ad565b6125c68382612b25565b6125d08282612cc3565b505050565b60008060009054906101000a900473ffffffffffffffffffffffffffffffffffffffff1673ffffffffffffffffffffffffffffffffffffffff163373ffffffffffffffffffffffffffffffffffffffff1614612699576040517f08c379a000000000000000000000000000000000000000000000000000000000815260040180806020018281038252601c8152602001807f43616c6c6572206973206e6f7420636f6e7472616374206f776e65720000000081525060200191505060405180910390fd5b6126a38383612d8a565b6126ac82612dab565b6001905092915050565b600081600001549050919050565b60006126e58473ffffffffffffffffffffffffffffffffffffffff16612efc565b6126f257600190506128a5565b60008473ffffffffffffffffffffffffffffffffffffffff1663150b7a02338887876040518563ffffffff1660e01b8152600401808573ffffffffffffffffffffffffffffffffffffffff1673ffffffffffffffffffffffffffffffffffffffff1681526020018473ffffffffffffffffffffffffffffffffffffffff1673ffffffffffffffffffffffffffffffffffffffff16815260200183815260200180602001828103825283818151815260200191508051906020019080838360005b838110156127cd5780820151818401526020810190506127b2565b50505050905090810190601f1680156127fa5780820380516001836020036101000a031916815260200191505b5095505050505050602060405180830381600087803b15801561281c57600080fd5b505af1158015612830573d6000803e3d6000fd5b505050506040513d602081101561284657600080fd5b8101908080519060200190929190505050905063150b7a0260e01b7bffffffffffffffffffffffffffffffffffffffffffffffffffffffff1916817bffffffffffffffffffffffffffffffffffffffffffffffffffffffff1916149150505b949350505050565b8273ffffffffffffffffffffffffffffffffffffffff166128cd82611490565b73ffffffffffffffffffffffffffffffffffffffff1614612939576040517f08c379a000000000000000000000000000000000000000000000000000000000815260040180806020018281038252602d8152602001806139cf602d913960400191505060405180910390fd5b600073ffffffffffffffffffffffffffffffffffffffff168273ffffffffffffffffffffffffffffffffffffffff1614156129dc576040517f08c379a00000000000000000000000000000000000000000000000000000000081526004018080602001828103825260148152602001807f61646472657373206973206e6f742076616c696400000000000000000000000081525060200191505060405180910390fd5b6129e581612f47565b612a2c600460008473ffffffffffffffffffffffffffffffffffffffff1673ffffffffffffffffffffffffffffffffffffffff168152602001908152602001600020613005565b612a73600460008573ffffffffffffffffffffffffffffffffffffffff1673ffffffffffffffffffffffffffffffffffffffff16815260200190815260200160002061301b565b816002600083815260200190815260200160002060006101000a81548173ffffffffffffffffffffffffffffffffffffffff021916908373ffffffffffffffffffffffffffffffffffffffff160217905550808273ffffffffffffffffffffffffffffffffffffffff168473ffffffffffffffffffffffffffffffffffffffff167fddf252ad1be2c89b69c2b068fc378daa952ba7f163c4a11628f55a4df523b3ef60405160405180910390a4505050565b6000612b7d6001600660008673ffffffffffffffffffffffffffffffffffffffff1673ffffffffffffffffffffffffffffffffffffffff1681526020019081526020016000208054905061303e90919063ffffffff16565b9050600060076000848152602001908152602001600020549050818114612c6a576000600660008673ffffffffffffffffffffffffffffffffffffffff1673ffffffffffffffffffffffffffffffffffffffff1681526020019081526020016000208381548110612bea57fe5b9060005260206000200154905080600660008773ffffffffffffffffffffffffffffffffffffffff1673ffffffffffffffffffffffffffffffffffffffff1681526020019081526020016000208381548110612c4257fe5b9060005260206000200181905550816007600083815260200190815260200160002081905550505b600660008573ffffffffffffffffffffffffffffffffffffffff1673ffffffffffffffffffffffffffffffffffffffff168152602001908152602001600020805480919060019003612cbc919061381f565b5050505050565b600660008373ffffffffffffffffffffffffffffffffffffffff1673ffffffffffffffffffffffffffffffffffffffff168152602001908152602001600020805490506007600083815260200190815260200160002081905550600660008373ffffffffffffffffffffffffffffffffffffffff1673ffffffffffffffffffffffffffffffffffffffff1681526020019081526020016000208190806001815401808255809150509060018203906000526020600020016000909192909190915055505050565b612d948282613088565b612d9e8282612cc3565b612da7816132a0565b5050565b612db4816124aa565b612e26576040517f08c379a00000000000000000000000000000000000000000000000000000000081526004018080602001828103825260148152602001807f746f6b656e20646f6573206e6f7420657869737400000000000000000000000081525060200191505060405180910390fd5b612ed260118054600181600116156101000203166002900480601f016020809104026020016040519081016040528092919081815260200182805460018160011615610100020316600290048015612ebf5780601f10612e9457610100808354040283529160200191612ebf565b820191906000526020600020905b815481529060010190602001808311612ea257829003601f168201915b5050505050612ecd836132ec565b613419565b601260008381526020019081526020016000209080519060200190612ef892919061384b565b5050565b60008060007fc5d2460186f7233c927e7db2dcc703c0e500b653ca82273b7bfad8045d85a47060001b9050833f9150808214158015612f3e57506000801b8214155b92505050919050565b600073ffffffffffffffffffffffffffffffffffffffff166003600083815260200190815260200160002060009054906101000a900473ffffffffffffffffffffffffffffffffffffffff1673ffffffffffffffffffffffffffffffffffffffff16146130025760006003600083815260200190815260200160002060006101000a81548173ffffffffffffffffffffffffffffffffffffffff021916908373ffffffffffffffffffffffffffffffffffffffff1602179055505b50565b6001816000016000828254019250508190555050565b6130336001826000015461303e90919063ffffffff16565b816000018190555050565b600061308083836040518060400160405280601e81526020017f536166654d6174683a207375627472616374696f6e206f766572666c6f77000081525061345d565b905092915050565b613091816124aa565b15613104576040517f08c379a00000000000000000000000000000000000000000000000000000000081526004018080602001828103825260178152602001807f546f6b656e20494420646f6573206e6f7420657869737400000000000000000081525060200191505060405180910390fd5b600073ffffffffffffffffffffffffffffffffffffffff168273ffffffffffffffffffffffffffffffffffffffff1614156131a7576040517f08c379a00000000000000000000000000000000000000000000000000000000081526004018080602001828103825260148152602001807f41646472657373206973206e6f742076616c696400000000000000000000000081525060200191505060405180910390fd5b816002600083815260200190815260200160002060006101000a81548173ffffffffffffffffffffffffffffffffffffffff021916908373ffffffffffffffffffffffffffffffffffffffff160217905550613240600460008473ffffffffffffffffffffffffffffffffffffffff1673ffffffffffffffffffffffffffffffffffffffff168152602001908152602001600020613005565b808273ffffffffffffffffffffffffffffffffffffffff16600073ffffffffffffffffffffffffffffffffffffffff167fddf252ad1be2c89b69c2b068fc378daa952ba7f163c4a11628f55a4df523b3ef60405160405180910390a45050565b6008805490506009600083815260200190815260200160002081905550600881908060018154018082558091505090600182039060005260206000200160009091929091909150555050565b60606000821415613334576040518060400160405280600181526020017f30000000000000000000000000000000000000000000000000000000000000008152509050613414565b600082905060005b6000821461335e578080600101915050600a828161335657fe5b04915061333c565b6060816040519080825280601f01601f1916602001820160405280156133935781602001600182028038833980820191505090505b50905060006001830390505b6000861461340c57600a86816133b157fe5b0660300160f81b828280600190039350815181106133cb57fe5b60200101907effffffffffffffffffffffffffffffffffffffffffffffffffffffffffffff1916908160001a905350600a868161340457fe5b04955061339f565b819450505050505b919050565b6060613455838360405180602001604052806000815250604051806020016040528060008152506040518060200160405280600081525061351d565b905092915050565b600083831115829061350a576040517f08c379a00000000000000000000000000000000000000000000000000000000081526004018080602001828103825283818151815260200191508051906020019080838360005b838110156134cf5780820151818401526020810190506134b4565b50505050905090810190601f1680156134fc5780820380516001836020036101000a031916815260200191505b509250505060405180910390fd5b5060008385039050809150509392505050565b6060808690506060869050606086905060608690506060869050606081518351855187518951010101016040519080825280601f01601f1916602001820160405280156135795781602001600182028038833980820191505090505b509050606081905060008090506000809050600090505b88518110156135fe578881815181106135a557fe5b602001015160f81c60f81b8383806001019450815181106135c257fe5b60200101907effffffffffffffffffffffffffffffffffffffffffffffffffffffffffffff1916908160001a9053508080600101915050613590565b600090505b87518110156136715787818151811061361857fe5b602001015160f81c60f81b83838060010194508151811061363557fe5b60200101907effffffffffffffffffffffffffffffffffffffffffffffffffffffffffffff1916908160001a9053508080600101915050613603565b600090505b86518110156136e45786818151811061368b57fe5b602001015160f81c60f81b8383806001019450815181106136a857fe5b60200101907effffffffffffffffffffffffffffffffffffffffffffffffffffffffffffff1916908160001a9053508080600101915050613676565b600090505b8551811015613757578581815181106136fe57fe5b602001015160f81c60f81b83838060010194508151811061371b57fe5b60200101907effffffffffffffffffffffffffffffffffffffffffffffffffffffffffffff1916908160001a90535080806001019150506136e9565b600090505b84518110156137ca5784818151811061377157fe5b602001015160f81c60f81b83838060010194508151811061378e57fe5b60200101907effffffffffffffffffffffffffffffffffffffffffffffffffffffffffffff1916908160001a905350808060010191505061375c565b82995050505050505050505095945050505050565b826002810192821561380e579160200282015b8281111561380d5782518255916020019190600101906137f2565b5b50905061381b91906138cb565b5090565b8154818355818111156138465781836000526020600020918201910161384591906138cb565b5b505050565b828054600181600116156101000203166002900490600052602060002090601f016020900481019282601f1061388c57805160ff19168380011785556138ba565b828001600101855582156138ba579182015b828111156138b957825182559160200191906001019061389e565b5b5090506138c791906138cb565b5090565b6138ed91905b808211156138e95760008160009055506001016138d1565b5090565b9056fe77726f6e6720746f6b656e206f776e657220616464726573732070726f7669646564546865206f776e65722063616e6e6f6e7420617070726f766520686973206f776e2061646472657373736f6c7574696f6e2068617320616c7265616479206265656e20757365642070726576696f75736c793b206372656174652061206e6577206f6e65207573696e67205a6f4b72617465736e6f20736f6c7574696f6e207375626d697474656420666f7220676976656e20746f6b656e20494474686520746f6b656e2068617320616c7265616479206265656e206d696e746564736f757263652061646472657373206d75737420626520746865206f776e6572206f662074686520746f6b656e4d6573736167652073656e646572206e6565647320746f206265206f776e6572206f662074686520636f6e7472616374206f7220617070726f766564a265627a7a723158200d1b1ad32a180d0923c734281dc862b95a89df63cc6a7371883336a777172e8b64736f6c6343000510003268747470733a2f2f73332d75732d776573742d322e616d617a6f6e6177732e636f6d2f756461636974792d626c6f636b636861696e2f63617073746f6e652f",
  "source": "// SPDX-License-Identifier: MIT\n\npragma solidity >=0.4.21;\nimport \"./Verifier.sol\";\nimport \"./ERC721Mintable.sol\";\n\n// TODO define a contract call to the zokrates generated solidity contract <Verifier> or <renamedVerifier>\n\n// TODO define another contract named SolnSquareVerifier that inherits from your ERC721Mintable class\ncontract SolnSquareVerifier is ERC721Token {\n    Verifier verifierContract;\n\n    constructor(address verifier_addr) public {\n        verifierContract = Verifier(verifier_addr);\n    }\n\n    // Define a solutions struct that can hold an index & an address\n    struct Solution {\n        uint256 tokenID;\n        address owner;\n        uint256[2] input;\n        bool isMinted;\n    }\n\n    // Define an array of the above struct\n    mapping(bytes32 => Solution) solutions;\n\n    // Define a mapping to store unique solutions submitted\n    mapping(uint256 => bytes32) private solutionSubmissions;\n\n    // Create an event to emit when a solution is added\n    event SolutionSubmitted(address indexed owner, uint256 indexed tokenID);\n\n    // Create a function to add the solutions to the array and emit the event\n    function submitSolution(\n        uint256[2] memory a,\n        uint256[2][2] memory b,\n        uint256[2] memory c,\n        uint256[2] memory input,\n        address account,\n        uint256 tokenID\n    ) public {\n        require(\n            verifierContract.verifyTx(a, b, c, input),\n            \"unable to verify the solution\"\n        );\n\n        // Hash a, b, c and the input to create a unique key for the solution\n        bytes32 solutionKey = keccak256(abi.encodePacked(a, b, c, input));\n\n        require(\n            solutions[solutionKey].tokenID == 0,\n            \"solution has already been used previously; create a new one using ZoKrates\"\n        );\n\n        solutionSubmissions[tokenID] = solutionKey;\n        solutions[solutionKey].owner = account;\n        solutions[solutionKey].tokenID = tokenID;\n        solutions[solutionKey].input = input;\n\n        emit SolutionSubmitted(account, tokenID);\n    }\n\n    // Create a function to mint new NFT only after the solution has been verified\n    //  - make sure the solution is unique (has not been used before)\n    //  - make sure you handle metadata as well as token supply\n    function mint(address to, uint256 tokenID) public returns (bool) {\n        bytes32 solutionKey = solutionSubmissions[tokenID];\n        require(\n            solutionKey != bytes32(0),\n            \"no solution submitted for given token ID\"\n        );\n        require(\n            !solutions[solutionKey].isMinted,\n            \"the token has already been minted\"\n        );\n\n        address owner = solutions[solutionSubmissions[tokenID]].owner;\n        require(owner == to, \"wrong token owner address provided\");\n\n        solutions[solutionKey].isMinted = true;\n        return super.mint(to, tokenID);\n    }\n}\n",
  "sourcePath": "/home/peter/Real-Estate/eth-contracts/contracts/SolnSquareVerifier.sol",
  "compiler": {
    "name": "solc",
    "version": "0.5.16+commit.9c3226ce.Emscripten.clang"
  },
  "schemaVersion": "3.4.7",
  "updatedAt": "2022-06-24T14:10:19.823Z",
  "networkType": "ethereum",
  "devdoc": {
    "methods": {
      "balanceOf(address)": {
        "details": "Return the token balance of given address"
      },
      "isApprovedForAll(address,address)": {
        "details": "Tells whether an operator is approved by a given owner",
        "params": {
          "operator": "operator address which you want to query the approval of",
          "owner": "owner address which you want to query the approval of"
        },
        "return": "bool whether the given operator is approved by the given owner"
      },
      "owner()": {
        "details": "Return the owner of the account"
      },
      "pause()": {
        "details": "Enable the user to pause a contract"
      },
      "setApprovalForAll(address,bool)": {
        "details": "Sets or unsets the approval of a given operator An operator is allowed to transfer all tokens of the sender on their behalf",
        "params": {
          "approved": "representing the status of the approval to be set",
          "to": "operator address to set the approval"
        }
      },
      "supportsInterface(bytes4)": {
        "details": "implement supportsInterface(bytes4) using a lookup table"
      },
      "tokenByIndex(uint256)": {
        "details": "Gets the token ID at a given index of all the tokens in this contract Reverts if the index is greater or equal to the total number of tokens",
        "params": {
          "index": "uint256 representing the index to be accessed of the tokens list"
        },
        "return": "uint256 token ID at the given index of the tokens list"
      },
      "tokenOfOwnerByIndex(address,uint256)": {
        "details": "Gets the token ID at a given index of the tokens list of the requested owner",
        "params": {
          "index": "uint256 representing the index to be accessed of the requested tokens list",
          "owner": "address owning the tokens list to be accessed"
        },
        "return": "uint256 token ID at the given index of the tokens list owned by the requested address"
      },
      "totalSupply()": {
        "details": "Gets the total amount of tokens stored by the contract",
        "return": "uint256 representing the total amount of tokens"
      },
      "transferOwnership(address)": {
        "details": "Transfer control of the contract to a new owner"
      },
      "unPause()": {
        "details": "Enable the user to unpause a contract"
      }
    }
  },
  "userdoc": {
    "methods": {}
  }
}